{
  "transactions": [
    {
      "hash": "0x6163e3605f1537e3450b58e8895a9a617fb967f0b396fa7962fc13720ccf543f",
      "transactionType": "CREATE",
      "contractName": "MockERC20",
      "contractAddress": "0xca0d7b1b0330417310138ae4c9088eb3498dc9f9",
      "function": null,
      "arguments": [
        "LBTC",
        "LBTC",
        "8"
      ],
      "transaction": {
        "from": "0x34973347d332f97b57e5f0953ad5864ba8e579dd",
        "gas": "0xf9af0",
        "value": "0x0",
        "input": "0x60806040523480156200001157600080fd5b5060405162000f1838038062000f18833981810160405260608110156200003757600080fd5b81019080805160405193929190846401000000008211156200005857600080fd5b9083019060208201858111156200006e57600080fd5b82516401000000008111828201881017156200008957600080fd5b82525081516020918201929091019080838360005b83811015620000b85781810151838201526020016200009e565b50505050905090810190601f168015620000e65780820380516001836020036101000a031916815260200191505b50604052602001805160405193929190846401000000008211156200010a57600080fd5b9083019060208201858111156200012057600080fd5b82516401000000008111828201881017156200013b57600080fd5b82525081516020918201929091019080838360005b838110156200016a57818101518382015260200162000150565b50505050905090810190601f168015620001985780820380516001836020036101000a031916815260200191505b50604052602001519150620001b9905083836001600160e01b03620001d616565b620001cd816001600160e01b03620002c416565b50505062000383565b600054610100900460ff1680620001fb5750620001fb6001600160e01b03620002da16565b806200020a575060005460ff16155b620002475760405162461bcd60e51b815260040180806020018281038252602e81526020018062000eea602e913960400191505060405180910390fd5b600054610100900460ff1615801562000273576000805460ff1961ff0019909116610100171660011790555b825162000288906068906020860190620002e1565b5081516200029e906069906020850190620002e1565b50606a805460ff191660121790558015620002bf576000805461ff00191690555b505050565b606a805460ff191660ff92909216919091179055565b303b155b90565b828054600181600116156101000203166002900490600052602060002090601f016020900481019282601f106200032457805160ff191683800117855562000354565b8280016001018555821562000354579182015b828111156200035457825182559160200191906001019062000337565b506200036292915062000366565b5090565b620002de91905b808211156200036257600081556001016200036d565b610b5780620003936000396000f3fe608060405234801561001057600080fd5b50600436106100b45760003560e01c806340c10f191161007157806340c10f191461021057806370a082311461023e57806395d89b4114610264578063a457c2d71461026c578063a9059cbb14610298578063dd62ed3e146102c4576100b4565b806306fdde03146100b9578063095ea7b31461013657806318160ddd1461017657806323b872dd14610190578063313ce567146101c657806339509351146101e4575b600080fd5b6100c16102f2565b6040805160208082528351818301528351919283929083019185019080838360005b838110156100fb5781810151838201526020016100e3565b50505050905090810190601f1680156101285780820380516001836020036101000a031916815260200191505b509250505060405180910390f35b6101626004803603604081101561014c57600080fd5b506001600160a01b038135169060200135610388565b604080519115158252519081900360200190f35b61017e6103a5565b60408051918252519081900360200190f35b610162600480360360608110156101a657600080fd5b506001600160a01b038135811691602081013590911690604001356103ab565b6101ce610438565b6040805160ff9092168252519081900360200190f35b610162600480360360408110156101fa57600080fd5b506001600160a01b038135169060200135610441565b61023c6004803603604081101561022657600080fd5b506001600160a01b038135169060200135610495565b005b61017e6004803603602081101561025457600080fd5b50356001600160a01b03166104a3565b6100c16104be565b6101626004803603604081101561028257600080fd5b506001600160a01b03813516906020013561051f565b610162600480360360408110156102ae57600080fd5b506001600160a01b03813516906020013561058d565b61017e600480360360408110156102da57600080fd5b506001600160a01b03813581169160200135166105a1565b60688054604080516020601f600260001961010060018816150201909516949094049384018190048102820181019092528281526060939092909183018282801561037e5780601f106103535761010080835404028352916020019161037e565b820191906000526020600020905b81548152906001019060200180831161036157829003601f168201915b5050505050905090565b600061039c6103956105cc565b84846105d0565b50600192915050565b60675490565b60006103b88484846106bc565b61042e846103c46105cc565b61042985604051806060016040528060288152602001610a8c602891396001600160a01b038a166000908152606660205260408120906104026105cc565b6001600160a01b03168152602081019190915260400160002054919063ffffffff61082516565b6105d0565b5060019392505050565b606a5460ff1690565b600061039c61044e6105cc565b84610429856066600061045f6105cc565b6001600160a01b03908116825260208083019390935260409182016000908120918c16815292529020549063ffffffff6108bc16565b61049f828261091d565b5050565b6001600160a01b031660009081526065602052604090205490565b60698054604080516020601f600260001961010060018816150201909516949094049384018190048102820181019092528281526060939092909183018282801561037e5780601f106103535761010080835404028352916020019161037e565b600061039c61052c6105cc565b8461042985604051806060016040528060258152602001610afd60259139606660006105566105cc565b6001600160a01b03908116825260208083019390935260409182016000908120918d1681529252902054919063ffffffff61082516565b600061039c61059a6105cc565b84846106bc565b6001600160a01b03918216600090815260666020908152604080832093909416825291909152205490565b3390565b6001600160a01b0383166106155760405162461bcd60e51b8152600401808060200182810382526024815260200180610ad96024913960400191505060405180910390fd5b6001600160a01b03821661065a5760405162461bcd60e51b8152600401808060200182810382526022815260200180610a446022913960400191505060405180910390fd5b6001600160a01b03808416600081815260666020908152604080832094871680845294825291829020859055815185815291517f8c5be1e5ebec7d5bd14f71427d1e84f3dd0314c0f7b2291e5b200ac8c7c3b9259281900390910190a3505050565b6001600160a01b0383166107015760405162461bcd60e51b8152600401808060200182810382526025815260200180610ab46025913960400191505060405180910390fd5b6001600160a01b0382166107465760405162461bcd60e51b8152600401808060200182810382526023815260200180610a216023913960400191505060405180910390fd5b610751838383610a1b565b61079481604051806060016040528060268152602001610a66602691396001600160a01b038616600090815260656020526040902054919063ffffffff61082516565b6001600160a01b0380851660009081526065602052604080822093909355908416815220546107c9908263ffffffff6108bc16565b6001600160a01b0380841660008181526065602090815260409182902094909455805185815290519193928716927fddf252ad1be2c89b69c2b068fc378daa952ba7f163c4a11628f55a4df523b3ef92918290030190a3505050565b600081848411156108b45760405162461bcd60e51b81526004018080602001828103825283818151815260200191508051906020019080838360005b83811015610879578181015183820152602001610861565b50505050905090810190601f1680156108a65780820380516001836020036101000a031916815260200191505b509250505060405180910390fd5b505050900390565b600082820183811015610916576040805162461bcd60e51b815260206004820152601b60248201527f536166654d6174683a206164646974696f6e206f766572666c6f770000000000604482015290519081900360640190fd5b9392505050565b6001600160a01b038216610978576040805162461bcd60e51b815260206004820152601f60248201527f45524332303a206d696e7420746f20746865207a65726f206164647265737300604482015290519081900360640190fd5b61098460008383610a1b565b606754610997908263ffffffff6108bc16565b6067556001600160a01b0382166000908152606560205260409020546109c3908263ffffffff6108bc16565b6001600160a01b03831660008181526065602090815260408083209490945583518581529351929391927fddf252ad1be2c89b69c2b068fc378daa952ba7f163c4a11628f55a4df523b3ef9281900390910190a35050565b50505056fe45524332303a207472616e7366657220746f20746865207a65726f206164647265737345524332303a20617070726f766520746f20746865207a65726f206164647265737345524332303a207472616e7366657220616d6f756e7420657863656564732062616c616e636545524332303a207472616e7366657220616d6f756e74206578636565647320616c6c6f77616e636545524332303a207472616e736665722066726f6d20746865207a65726f206164647265737345524332303a20617070726f76652066726f6d20746865207a65726f206164647265737345524332303a2064656372656173656420616c6c6f77616e63652062656c6f77207a65726fa2646970667358221220cfcb548f0437b7bac300ac8d58784d0cb4b2ef7c2294585c69d43436fcc76c7264736f6c634300060a0033436f6e747261637420696e7374616e63652068617320616c7265616479206265656e20696e697469616c697a6564000000000000000000000000000000000000000000000000000000000000006000000000000000000000000000000000000000000000000000000000000000a0000000000000000000000000000000000000000000000000000000000000000800000000000000000000000000000000000000000000000000000000000000044c4254430000000000000000000000000000000000000000000000000000000000000000000000000000000000000000000000000000000000000000000000044c42544300000000000000000000000000000000000000000000000000000000",
        "nonce": "0x60",
        "chainId": "0x14a34"
      },
      "additionalContracts": [],
      "isFixedGasLimit": false
    },
    {
      "hash": "0x5ac2dd3b3e1aa945359a84ca6c64c3e634172cd4f7db9fdb75dddd3c7b4b5fa7",
      "transactionType": "CREATE",
      "contractName": "MockERC20",
      "contractAddress": "0x0cb970511c6c3491dc36f1b7774743da3fc4335f",
      "function": null,
      "arguments": [
        "WBTC",
        "WBTC",
        "8"
      ],
      "transaction": {
        "from": "0x34973347d332f97b57e5f0953ad5864ba8e579dd",
        "gas": "0xf9af0",
        "value": "0x0",
        "input": "0x60806040523480156200001157600080fd5b5060405162000f1838038062000f18833981810160405260608110156200003757600080fd5b81019080805160405193929190846401000000008211156200005857600080fd5b9083019060208201858111156200006e57600080fd5b82516401000000008111828201881017156200008957600080fd5b82525081516020918201929091019080838360005b83811015620000b85781810151838201526020016200009e565b50505050905090810190601f168015620000e65780820380516001836020036101000a031916815260200191505b50604052602001805160405193929190846401000000008211156200010a57600080fd5b9083019060208201858111156200012057600080fd5b82516401000000008111828201881017156200013b57600080fd5b82525081516020918201929091019080838360005b838110156200016a57818101518382015260200162000150565b50505050905090810190601f168015620001985780820380516001836020036101000a031916815260200191505b50604052602001519150620001b9905083836001600160e01b03620001d616565b620001cd816001600160e01b03620002c416565b50505062000383565b600054610100900460ff1680620001fb5750620001fb6001600160e01b03620002da16565b806200020a575060005460ff16155b620002475760405162461bcd60e51b815260040180806020018281038252602e81526020018062000eea602e913960400191505060405180910390fd5b600054610100900460ff1615801562000273576000805460ff1961ff0019909116610100171660011790555b825162000288906068906020860190620002e1565b5081516200029e906069906020850190620002e1565b50606a805460ff191660121790558015620002bf576000805461ff00191690555b505050565b606a805460ff191660ff92909216919091179055565b303b155b90565b828054600181600116156101000203166002900490600052602060002090601f016020900481019282601f106200032457805160ff191683800117855562000354565b8280016001018555821562000354579182015b828111156200035457825182559160200191906001019062000337565b506200036292915062000366565b5090565b620002de91905b808211156200036257600081556001016200036d565b610b5780620003936000396000f3fe608060405234801561001057600080fd5b50600436106100b45760003560e01c806340c10f191161007157806340c10f191461021057806370a082311461023e57806395d89b4114610264578063a457c2d71461026c578063a9059cbb14610298578063dd62ed3e146102c4576100b4565b806306fdde03146100b9578063095ea7b31461013657806318160ddd1461017657806323b872dd14610190578063313ce567146101c657806339509351146101e4575b600080fd5b6100c16102f2565b6040805160208082528351818301528351919283929083019185019080838360005b838110156100fb5781810151838201526020016100e3565b50505050905090810190601f1680156101285780820380516001836020036101000a031916815260200191505b509250505060405180910390f35b6101626004803603604081101561014c57600080fd5b506001600160a01b038135169060200135610388565b604080519115158252519081900360200190f35b61017e6103a5565b60408051918252519081900360200190f35b610162600480360360608110156101a657600080fd5b506001600160a01b038135811691602081013590911690604001356103ab565b6101ce610438565b6040805160ff9092168252519081900360200190f35b610162600480360360408110156101fa57600080fd5b506001600160a01b038135169060200135610441565b61023c6004803603604081101561022657600080fd5b506001600160a01b038135169060200135610495565b005b61017e6004803603602081101561025457600080fd5b50356001600160a01b03166104a3565b6100c16104be565b6101626004803603604081101561028257600080fd5b506001600160a01b03813516906020013561051f565b610162600480360360408110156102ae57600080fd5b506001600160a01b03813516906020013561058d565b61017e600480360360408110156102da57600080fd5b506001600160a01b03813581169160200135166105a1565b60688054604080516020601f600260001961010060018816150201909516949094049384018190048102820181019092528281526060939092909183018282801561037e5780601f106103535761010080835404028352916020019161037e565b820191906000526020600020905b81548152906001019060200180831161036157829003601f168201915b5050505050905090565b600061039c6103956105cc565b84846105d0565b50600192915050565b60675490565b60006103b88484846106bc565b61042e846103c46105cc565b61042985604051806060016040528060288152602001610a8c602891396001600160a01b038a166000908152606660205260408120906104026105cc565b6001600160a01b03168152602081019190915260400160002054919063ffffffff61082516565b6105d0565b5060019392505050565b606a5460ff1690565b600061039c61044e6105cc565b84610429856066600061045f6105cc565b6001600160a01b03908116825260208083019390935260409182016000908120918c16815292529020549063ffffffff6108bc16565b61049f828261091d565b5050565b6001600160a01b031660009081526065602052604090205490565b60698054604080516020601f600260001961010060018816150201909516949094049384018190048102820181019092528281526060939092909183018282801561037e5780601f106103535761010080835404028352916020019161037e565b600061039c61052c6105cc565b8461042985604051806060016040528060258152602001610afd60259139606660006105566105cc565b6001600160a01b03908116825260208083019390935260409182016000908120918d1681529252902054919063ffffffff61082516565b600061039c61059a6105cc565b84846106bc565b6001600160a01b03918216600090815260666020908152604080832093909416825291909152205490565b3390565b6001600160a01b0383166106155760405162461bcd60e51b8152600401808060200182810382526024815260200180610ad96024913960400191505060405180910390fd5b6001600160a01b03821661065a5760405162461bcd60e51b8152600401808060200182810382526022815260200180610a446022913960400191505060405180910390fd5b6001600160a01b03808416600081815260666020908152604080832094871680845294825291829020859055815185815291517f8c5be1e5ebec7d5bd14f71427d1e84f3dd0314c0f7b2291e5b200ac8c7c3b9259281900390910190a3505050565b6001600160a01b0383166107015760405162461bcd60e51b8152600401808060200182810382526025815260200180610ab46025913960400191505060405180910390fd5b6001600160a01b0382166107465760405162461bcd60e51b8152600401808060200182810382526023815260200180610a216023913960400191505060405180910390fd5b610751838383610a1b565b61079481604051806060016040528060268152602001610a66602691396001600160a01b038616600090815260656020526040902054919063ffffffff61082516565b6001600160a01b0380851660009081526065602052604080822093909355908416815220546107c9908263ffffffff6108bc16565b6001600160a01b0380841660008181526065602090815260409182902094909455805185815290519193928716927fddf252ad1be2c89b69c2b068fc378daa952ba7f163c4a11628f55a4df523b3ef92918290030190a3505050565b600081848411156108b45760405162461bcd60e51b81526004018080602001828103825283818151815260200191508051906020019080838360005b83811015610879578181015183820152602001610861565b50505050905090810190601f1680156108a65780820380516001836020036101000a031916815260200191505b509250505060405180910390fd5b505050900390565b600082820183811015610916576040805162461bcd60e51b815260206004820152601b60248201527f536166654d6174683a206164646974696f6e206f766572666c6f770000000000604482015290519081900360640190fd5b9392505050565b6001600160a01b038216610978576040805162461bcd60e51b815260206004820152601f60248201527f45524332303a206d696e7420746f20746865207a65726f206164647265737300604482015290519081900360640190fd5b61098460008383610a1b565b606754610997908263ffffffff6108bc16565b6067556001600160a01b0382166000908152606560205260409020546109c3908263ffffffff6108bc16565b6001600160a01b03831660008181526065602090815260408083209490945583518581529351929391927fddf252ad1be2c89b69c2b068fc378daa952ba7f163c4a11628f55a4df523b3ef9281900390910190a35050565b50505056fe45524332303a207472616e7366657220746f20746865207a65726f206164647265737345524332303a20617070726f766520746f20746865207a65726f206164647265737345524332303a207472616e7366657220616d6f756e7420657863656564732062616c616e636545524332303a207472616e7366657220616d6f756e74206578636565647320616c6c6f77616e636545524332303a207472616e736665722066726f6d20746865207a65726f206164647265737345524332303a20617070726f76652066726f6d20746865207a65726f206164647265737345524332303a2064656372656173656420616c6c6f77616e63652062656c6f77207a65726fa2646970667358221220cfcb548f0437b7bac300ac8d58784d0cb4b2ef7c2294585c69d43436fcc76c7264736f6c634300060a0033436f6e747261637420696e7374616e63652068617320616c7265616479206265656e20696e697469616c697a6564000000000000000000000000000000000000000000000000000000000000006000000000000000000000000000000000000000000000000000000000000000a000000000000000000000000000000000000000000000000000000000000000080000000000000000000000000000000000000000000000000000000000000004574254430000000000000000000000000000000000000000000000000000000000000000000000000000000000000000000000000000000000000000000000045742544300000000000000000000000000000000000000000000000000000000",
        "nonce": "0x61",
        "chainId": "0x14a34"
      },
      "additionalContracts": [],
      "isFixedGasLimit": false
    },
    {
      "hash": "0x8036e67869a9f1617b1b4e8ec1dc952b3fa018c735918a4fd7a09562eb12b65b",
      "transactionType": "CALL",
      "contractName": "MockERC20",
      "contractAddress": "0xca0d7b1b0330417310138ae4c9088eb3498dc9f9",
      "function": "mint(address,uint256)",
      "arguments": [
        "0x34973347D332F97b57e5f0953Ad5864Ba8E579DD",
        "100000000000000000000"
      ],
      "transaction": {
        "from": "0x34973347d332f97b57e5f0953ad5864ba8e579dd",
        "to": "0xca0d7b1b0330417310138ae4c9088eb3498dc9f9",
        "gas": "0x170e7",
        "value": "0x0",
        "input": "0x40c10f1900000000000000000000000034973347d332f97b57e5f0953ad5864ba8e579dd0000000000000000000000000000000000000000000000056bc75e2d63100000",
        "nonce": "0x62",
        "chainId": "0x14a34"
      },
      "additionalContracts": [],
      "isFixedGasLimit": false
    },
    {
      "hash": "0xd964b189d2b5d53e0c6e2a49b8fe426f61784b98e04501b6fd4e8d02d2e84df4",
      "transactionType": "CALL",
      "contractName": "MockERC20",
      "contractAddress": "0x0cb970511c6c3491dc36f1b7774743da3fc4335f",
      "function": "mint(address,uint256)",
      "arguments": [
        "0x34973347D332F97b57e5f0953Ad5864Ba8E579DD",
        "1000000000000000000000"
      ],
      "transaction": {
        "from": "0x34973347d332f97b57e5f0953ad5864ba8e579dd",
        "to": "0x0cb970511c6c3491dc36f1b7774743da3fc4335f",
        "gas": "0x170e7",
        "value": "0x0",
        "input": "0x40c10f1900000000000000000000000034973347d332f97b57e5f0953ad5864ba8e579dd00000000000000000000000000000000000000000000003635c9adc5dea00000",
        "nonce": "0x63",
        "chainId": "0x14a34"
      },
      "additionalContracts": [],
      "isFixedGasLimit": false
    },
    {
      "hash": "0x94ad06f5a1b2f6f22b5fcc950aca85a719ef5aeebb010f3b63f0c6610e91e655",
      "transactionType": "CALL",
      "contractName": "Whitelist",
      "contractAddress": "0xd4f3a2cc13024209c0752e71f7014e5c9177d9b5",
      "function": "whitelistCollateral(address)",
      "arguments": [
        "0x0cB970511c6C3491dC36f1B7774743DA3fc4335F"
      ],
      "transaction": {
        "from": "0x34973347d332f97b57e5f0953ad5864ba8e579dd",
        "to": "0xd4f3a2cc13024209c0752e71f7014e5c9177d9b5",
        "gas": "0x10dd8",
        "value": "0x0",
        "input": "0xa34626c40000000000000000000000000cb970511c6c3491dc36f1b7774743da3fc4335f",
        "nonce": "0x64",
        "chainId": "0x14a34"
      },
      "additionalContracts": [],
      "isFixedGasLimit": false
    },
    {
      "hash": "0x52d021c43fe4843c2dbec798dacad7e719bb96ed314072c720149ca04b82c697",
      "transactionType": "CALL",
      "contractName": "Whitelist",
      "contractAddress": "0xd4f3a2cc13024209c0752e71f7014e5c9177d9b5",
      "function": "whitelistProduct(address,address,address,bool)",
      "arguments": [
        "0x0cB970511c6C3491dC36f1B7774743DA3fc4335F",
        "0x98d56648c9b7F3cb49531F4135115B5000AB1733",
        "0x0cB970511c6C3491dC36f1B7774743DA3fc4335F",
        "false"
      ],
      "transaction": {
        "from": "0x34973347d332f97b57e5f0953ad5864ba8e579dd",
        "to": "0xd4f3a2cc13024209c0752e71f7014e5c9177d9b5",
        "gas": "0x1290a",
        "value": "0x0",
        "input": "0x82d90ebf0000000000000000000000000cb970511c6c3491dc36f1b7774743da3fc4335f00000000000000000000000098d56648c9b7f3cb49531f4135115b5000ab17330000000000000000000000000cb970511c6c3491dc36f1b7774743da3fc4335f0000000000000000000000000000000000000000000000000000000000000000",
        "nonce": "0x65",
        "chainId": "0x14a34"
      },
      "additionalContracts": [],
      "isFixedGasLimit": false
    },
    {
      "hash": "0x6329402fa17808a9d4fa0b3b9f7d55a2b522098d9dee5640fd1cbcfdc0923d1e",
      "transactionType": "CALL",
      "contractName": "Whitelist",
      "contractAddress": "0xd4f3a2cc13024209c0752e71f7014e5c9177d9b5",
      "function": "whitelistCoveredCollateral(address,address,bool)",
      "arguments": [
        "0x0cB970511c6C3491dC36f1B7774743DA3fc4335F",
        "0x0cB970511c6C3491dC36f1B7774743DA3fc4335F",
        "false"
      ],
      "transaction": {
        "from": "0x34973347d332f97b57e5f0953ad5864ba8e579dd",
        "to": "0xd4f3a2cc13024209c0752e71f7014e5c9177d9b5",
        "gas": "0x11590",
        "value": "0x0",
        "input": "0x1b2115910000000000000000000000000cb970511c6c3491dc36f1b7774743da3fc4335f0000000000000000000000000cb970511c6c3491dc36f1b7774743da3fc4335f0000000000000000000000000000000000000000000000000000000000000000",
        "nonce": "0x66",
        "chainId": "0x14a34"
      },
      "additionalContracts": [],
      "isFixedGasLimit": false
    },
    {
      "hash": "0x94c1474d858d2a041b0e57d3bfb946b06d8dd09b0e791dfdaa7f735e3dd690f5",
      "transactionType": "CALL",
      "contractName": "Whitelist",
      "contractAddress": "0xd4f3a2cc13024209c0752e71f7014e5c9177d9b5",
      "function": "whitelistCollateral(address)",
      "arguments": [
        "0xCa0D7b1B0330417310138Ae4C9088Eb3498dC9f9"
      ],
      "transaction": {
        "from": "0x34973347d332f97b57e5f0953ad5864ba8e579dd",
        "to": "0xd4f3a2cc13024209c0752e71f7014e5c9177d9b5",
        "gas": "0x10dd8",
        "value": "0x0",
        "input": "0xa34626c4000000000000000000000000ca0d7b1b0330417310138ae4c9088eb3498dc9f9",
        "nonce": "0x67",
        "chainId": "0x14a34"
      },
      "additionalContracts": [],
      "isFixedGasLimit": false
    },
    {
      "hash": "0xc0fd241aa194d4d8f56bbe44fc66c176663f2b8ea8866d14825840445f2323f8",
      "transactionType": "CALL",
      "contractName": "Whitelist",
      "contractAddress": "0xd4f3a2cc13024209c0752e71f7014e5c9177d9b5",
      "function": "whitelistProduct(address,address,address,bool)",
      "arguments": [
        "0x0cB970511c6C3491dC36f1B7774743DA3fc4335F",
        "0x98d56648c9b7F3cb49531F4135115B5000AB1733",
        "0xCa0D7b1B0330417310138Ae4C9088Eb3498dC9f9",
        "false"
      ],
      "transaction": {
        "from": "0x34973347d332f97b57e5f0953ad5864ba8e579dd",
        "to": "0xd4f3a2cc13024209c0752e71f7014e5c9177d9b5",
        "gas": "0x1290a",
        "value": "0x0",
        "input": "0x82d90ebf0000000000000000000000000cb970511c6c3491dc36f1b7774743da3fc4335f00000000000000000000000098d56648c9b7f3cb49531f4135115b5000ab1733000000000000000000000000ca0d7b1b0330417310138ae4c9088eb3498dc9f90000000000000000000000000000000000000000000000000000000000000000",
        "nonce": "0x68",
        "chainId": "0x14a34"
      },
      "additionalContracts": [],
      "isFixedGasLimit": false
    },
    {
      "hash": "0xa5448481c53a4c384d7cfbda408907b7e4d38b344cbb528ba82acb3f291b6e52",
      "transactionType": "CALL",
      "contractName": "Whitelist",
      "contractAddress": "0xd4f3a2cc13024209c0752e71f7014e5c9177d9b5",
      "function": "whitelistCoveredCollateral(address,address,bool)",
      "arguments": [
        "0xCa0D7b1B0330417310138Ae4C9088Eb3498dC9f9",
        "0x0cB970511c6C3491dC36f1B7774743DA3fc4335F",
        "false"
      ],
      "transaction": {
        "from": "0x34973347d332f97b57e5f0953ad5864ba8e579dd",
        "to": "0xd4f3a2cc13024209c0752e71f7014e5c9177d9b5",
        "gas": "0x11590",
        "value": "0x0",
        "input": "0x1b211591000000000000000000000000ca0d7b1b0330417310138ae4c9088eb3498dc9f90000000000000000000000000cb970511c6c3491dc36f1b7774743da3fc4335f0000000000000000000000000000000000000000000000000000000000000000",
        "nonce": "0x69",
        "chainId": "0x14a34"
      },
      "additionalContracts": [],
      "isFixedGasLimit": false
    }
  ],
  "receipts": [
    {
      "status": "0x1",
      "cumulativeGasUsed": "0x1ba5f27",
      "logs": [],
      "logsBloom": "0x00000000000000000000000000000000000000000000000000000000000000000000000000000000000000000000000000000000000000000000000000000000000000000000000000000000000000000000000000000000000000000000000000000000000000000000000000000000000000000000000000000000000000000000000000000000000000000000000000000000000000000000000000000000000000000000000000000000000000000000000000000000000000000000000000000000000000000000000000000000000000000000000000000000000000000000000000000000000000000000000000000000000000000000000000000000",
      "type": "0x2",
      "transactionHash": "0x6163e3605f1537e3450b58e8895a9a617fb967f0b396fa7962fc13720ccf543f",
      "transactionIndex": "0x22",
      "blockHash": "0xecbf74fb16f6bc20507f653cd0220fea0babd2e45dcd6bab40bb217fa6022e5f",
      "blockNumber": "0x13adf30",
      "gasUsed": "0xc0108",
      "effectiveGasPrice": "0x26e88c6",
      "from": "0x34973347d332f97b57e5f0953ad5864ba8e579dd",
      "to": null,
      "contractAddress": "0xca0d7b1b0330417310138ae4c9088eb3498dc9f9",
      "l1BaseFeeScalar": "0x44d",
      "l1BlobBaseFee": "0x1",
      "l1BlobBaseFeeScalar": "0xa118b",
      "l1Fee": "0x33e038ecdf",
      "l1GasPrice": "0x1689ec6ad",
      "l1GasUsed": "0x82a7"
    },
    {
      "status": "0x1",
      "cumulativeGasUsed": "0x1c8428f",
      "logs": [],
      "logsBloom": "0x00000000000000000000000000000000000000000000000000000000000000000000000000000000000000000000000000000000000000000000000000000000000000000000000000000000000000000000000000000000000000000000000000000000000000000000000000000000000000000000000000000000000000000000000000000000000000000000000000000000000000000000000000000000000000000000000000000000000000000000000000000000000000000000000000000000000000000000000000000000000000000000000000000000000000000000000000000000000000000000000000000000000000000000000000000000",
      "type": "0x2",
      "transactionHash": "0x5ac2dd3b3e1aa945359a84ca6c64c3e634172cd4f7db9fdb75dddd3c7b4b5fa7",
      "transactionIndex": "0x24",
      "blockHash": "0xecbf74fb16f6bc20507f653cd0220fea0babd2e45dcd6bab40bb217fa6022e5f",
      "blockNumber": "0x13adf30",
      "gasUsed": "0xc0108",
      "effectiveGasPrice": "0x26e88c6",
      "from": "0x34973347d332f97b57e5f0953ad5864ba8e579dd",
      "to": null,
      "contractAddress": "0x0cb970511c6c3491dc36f1b7774743da3fc4335f",
      "l1BaseFeeScalar": "0x44d",
      "l1BlobBaseFee": "0x1",
      "l1BlobBaseFeeScalar": "0xa118b",
      "l1Fee": "0x33e038ecdf",
      "l1GasPrice": "0x1689ec6ad",
      "l1GasUsed": "0x82a7"
    },
    {
      "status": "0x1",
      "cumulativeGasUsed": "0x1c94da4",
      "logs": [
        {
          "address": "0xca0d7b1b0330417310138ae4c9088eb3498dc9f9",
          "topics": [
            "0xddf252ad1be2c89b69c2b068fc378daa952ba7f163c4a11628f55a4df523b3ef",
            "0x0000000000000000000000000000000000000000000000000000000000000000",
            "0x00000000000000000000000034973347d332f97b57e5f0953ad5864ba8e579dd"
          ],
          "data": "0x0000000000000000000000000000000000000000000000056bc75e2d63100000",
          "blockHash": "0xecbf74fb16f6bc20507f653cd0220fea0babd2e45dcd6bab40bb217fa6022e5f",
          "blockNumber": "0x13adf30",
          "transactionHash": "0x8036e67869a9f1617b1b4e8ec1dc952b3fa018c735918a4fd7a09562eb12b65b",
          "transactionIndex": "0x25",
          "logIndex": "0x48",
          "removed": false
        }
      ],
      "logsBloom": "0x00000000000001000000000000000000000000000000100000000000000000000000020000000000000000000000000000000000000000000000000000000000000000000000000000000008000000000000000000000000000000000000000000000000020000000000000000000800000000000000000000000010000000000000000000000000000000000000000000000000000000000000000000000000000000000000000000000000000000000000000000000000000000000000000000000002000000000000000021000000000000000000000000000000000024000000000000000000000000000000000000000000000000000000000000000000",
      "type": "0x2",
      "transactionHash": "0x8036e67869a9f1617b1b4e8ec1dc952b3fa018c735918a4fd7a09562eb12b65b",
      "transactionIndex": "0x25",
      "blockHash": "0xecbf74fb16f6bc20507f653cd0220fea0babd2e45dcd6bab40bb217fa6022e5f",
      "blockNumber": "0x13adf30",
      "gasUsed": "0x10b15",
      "effectiveGasPrice": "0x26e88c6",
      "from": "0x34973347d332f97b57e5f0953ad5864ba8e579dd",
      "to": "0xca0d7b1b0330417310138ae4c9088eb3498dc9f9",
      "contractAddress": null,
      "l1BaseFeeScalar": "0x44d",
      "l1BlobBaseFee": "0x1",
      "l1BlobBaseFeeScalar": "0xa118b",
      "l1Fee": "0x27b44c1c7",
      "l1GasPrice": "0x1689ec6ad",
      "l1GasUsed": "0x640"
    },
    {
      "status": "0x1",
      "cumulativeGasUsed": "0x1ca58b9",
      "logs": [
        {
          "address": "0x0cb970511c6c3491dc36f1b7774743da3fc4335f",
          "topics": [
            "0xddf252ad1be2c89b69c2b068fc378daa952ba7f163c4a11628f55a4df523b3ef",
            "0x0000000000000000000000000000000000000000000000000000000000000000",
            "0x00000000000000000000000034973347d332f97b57e5f0953ad5864ba8e579dd"
          ],
          "data": "0x00000000000000000000000000000000000000000000003635c9adc5dea00000",
          "blockHash": "0xecbf74fb16f6bc20507f653cd0220fea0babd2e45dcd6bab40bb217fa6022e5f",
          "blockNumber": "0x13adf30",
          "transactionHash": "0xd964b189d2b5d53e0c6e2a49b8fe426f61784b98e04501b6fd4e8d02d2e84df4",
          "transactionIndex": "0x26",
          "logIndex": "0x49",
          "removed": false
        }
      ],
      "logsBloom": "0x00000000000001000000000000000000000000000000100000000000000000000000020000000000000000000000000000000000000000000000000000000000000000000000000000000008000020000000000000000000000000000000000000000000020000000000000010000800000000000000000000000010000000000000000000000000000000000000000000000000000000000000000000000000000000000000000000000000000000000000000000040000000000000000000000000002000000000000000000000000000000000000000000000000000020000000000000000000000000000000000000000000000000000000000000000000",
      "type": "0x2",
      "transactionHash": "0xd964b189d2b5d53e0c6e2a49b8fe426f61784b98e04501b6fd4e8d02d2e84df4",
      "transactionIndex": "0x26",
      "blockHash": "0xecbf74fb16f6bc20507f653cd0220fea0babd2e45dcd6bab40bb217fa6022e5f",
      "blockNumber": "0x13adf30",
      "gasUsed": "0x10b15",
      "effectiveGasPrice": "0x26e88c6",
      "from": "0x34973347d332f97b57e5f0953ad5864ba8e579dd",
      "to": "0x0cb970511c6c3491dc36f1b7774743da3fc4335f",
      "contractAddress": null,
      "l1BaseFeeScalar": "0x44d",
      "l1BlobBaseFee": "0x1",
      "l1BlobBaseFeeScalar": "0xa118b",
      "l1Fee": "0x27b44c1c7",
      "l1GasPrice": "0x1689ec6ad",
      "l1GasUsed": "0x640"
    },
    {
      "status": "0x1",
      "cumulativeGasUsed": "0x166c5b",
      "logs": [
        {
          "address": "0xd4f3a2cc13024209c0752e71f7014e5c9177d9b5",
          "topics": [
            "0x38c11947f16670fa95ddb76444c21a13a0be4f0132d147eb6245c4b94ea889fa",
            "0x0000000000000000000000000cb970511c6c3491dc36f1b7774743da3fc4335f"
          ],
          "data": "0x",
          "blockHash": "0x1aa011d6495a34b5435d6575dbe43af562c5eee1db8ded96db87329e8ab21dee",
          "blockNumber": "0x13adf31",
          "transactionHash": "0x94ad06f5a1b2f6f22b5fcc950aca85a719ef5aeebb010f3b63f0c6610e91e655",
          "transactionIndex": "0xf",
          "logIndex": "0x22",
          "removed": false
        }
      ],
      "logsBloom": "0x00000000000000000000000000000000000000000000000000000000000000000000000000000000000000000000000000000000000000000000000000000000000000000000001000000040000000000000000000000000000010000000000000000000000000400000000000000000000000000000000000000000000000000000000000000000008000000000000000000000000000000000000000000000000000000000000000000000000000000000000000000000000000000000000000000000000000000000000000200000000200002000000000000000000000000000000000000000000000000000000000020000000000000000000000000000",
      "type": "0x2",
      "transactionHash": "0x94ad06f5a1b2f6f22b5fcc950aca85a719ef5aeebb010f3b63f0c6610e91e655",
      "transactionIndex": "0xf",
      "blockHash": "0x1aa011d6495a34b5435d6575dbe43af562c5eee1db8ded96db87329e8ab21dee",
      "blockNumber": "0x13adf31",
      "gasUsed": "0xb883",
      "effectiveGasPrice": "0x278be9e",
      "from": "0x34973347d332f97b57e5f0953ad5864ba8e579dd",
      "to": "0xd4f3a2cc13024209c0752e71f7014e5c9177d9b5",
      "contractAddress": null,
      "l1BaseFeeScalar": "0x44d",
      "l1BlobBaseFee": "0x1",
      "l1BlobBaseFeeScalar": "0xa118b",
      "l1Fee": "0x27b44c1c7",
      "l1GasPrice": "0x1689ec6ad",
      "l1GasUsed": "0x640"
    },
    {
      "status": "0x1",
      "cumulativeGasUsed": "0x173776",
      "logs": [
        {
          "address": "0xd4f3a2cc13024209c0752e71f7014e5c9177d9b5",
          "topics": [
            "0x0f70a67bc35edde2b5599b6d163651e02f760143df04f95b4ef233299531bf21",
            "0x0000000000000000000000000cb970511c6c3491dc36f1b7774743da3fc4335f",
            "0x00000000000000000000000098d56648c9b7f3cb49531f4135115b5000ab1733",
            "0x0000000000000000000000000cb970511c6c3491dc36f1b7774743da3fc4335f"
          ],
          "data": "0x33b0c3731eb88c9ce8376340e5716ca93d1eb68a387d21df4a6020a5483222510000000000000000000000000000000000000000000000000000000000000000",
          "blockHash": "0x1aa011d6495a34b5435d6575dbe43af562c5eee1db8ded96db87329e8ab21dee",
          "blockNumber": "0x13adf31",
          "transactionHash": "0x52d021c43fe4843c2dbec798dacad7e719bb96ed314072c720149ca04b82c697",
          "transactionIndex": "0x10",
          "logIndex": "0x23",
          "removed": false
        }
      ],
      "logsBloom": "0x00020000000000000000000000000200000000000000000000000000000000000000000000000000000000000000000000080000000000000000000000000000000000000000000000000000000000000000000000000000000010000000000000000000000000400000000800040000000000000000000000000000000000000000000000000000008000000000000000000000000000000040000000000000000000000000000000000000000000000000000000000000000000000000000000000000000000000000000000000000000200002000000000000000000000000000000000000000000000000000000000020000000000000000000000000000",
      "type": "0x2",
      "transactionHash": "0x52d021c43fe4843c2dbec798dacad7e719bb96ed314072c720149ca04b82c697",
      "transactionIndex": "0x10",
      "blockHash": "0x1aa011d6495a34b5435d6575dbe43af562c5eee1db8ded96db87329e8ab21dee",
      "blockNumber": "0x13adf31",
      "gasUsed": "0xcb1b",
      "effectiveGasPrice": "0x278be9e",
      "from": "0x34973347d332f97b57e5f0953ad5864ba8e579dd",
      "to": "0xd4f3a2cc13024209c0752e71f7014e5c9177d9b5",
      "contractAddress": null,
      "l1BaseFeeScalar": "0x44d",
      "l1BlobBaseFee": "0x1",
      "l1BlobBaseFeeScalar": "0xa118b",
      "l1Fee": "0x2bdeedb27",
      "l1GasPrice": "0x1689ec6ad",
      "l1GasUsed": "0x6e7"
    },
    {
      "status": "0x1",
      "cumulativeGasUsed": "0x17f540",
      "logs": [
        {
          "address": "0xd4f3a2cc13024209c0752e71f7014e5c9177d9b5",
          "topics": [
            "0x2e19e4cd387b328475c3d4ea543cd82bcaabdeb94bb2d7529bf04a0d13a89a39",
            "0x0000000000000000000000000cb970511c6c3491dc36f1b7774743da3fc4335f"
          ],
          "data": "0x0000000000000000000000000cb970511c6c3491dc36f1b7774743da3fc4335f0000000000000000000000000000000000000000000000000000000000000000",
          "blockHash": "0x1aa011d6495a34b5435d6575dbe43af562c5eee1db8ded96db87329e8ab21dee",
          "blockNumber": "0x13adf31",
          "transactionHash": "0x6329402fa17808a9d4fa0b3b9f7d55a2b522098d9dee5640fd1cbcfdc0923d1e",
          "transactionIndex": "0x11",
          "logIndex": "0x24",
          "removed": false
        }
      ],
      "logsBloom": "0x00000000000000000000000000000000000000000000000000000000000000000000000000000000000000000000000000000000000000000000000000000000000000000000000000000000000000000000000000000000000010000000000000000000000000400000000000000000000000000000000000000000000000000000000000000000008000000000000000000000000000000000000000000000000000000000000000000000000000000000000000000000000000000000000000000000000000000000000000008000000200002000000000000000000000000000000000000000000000000000000000020000000000000000000000000030",
      "type": "0x2",
      "transactionHash": "0x6329402fa17808a9d4fa0b3b9f7d55a2b522098d9dee5640fd1cbcfdc0923d1e",
      "transactionIndex": "0x11",
      "blockHash": "0x1aa011d6495a34b5435d6575dbe43af562c5eee1db8ded96db87329e8ab21dee",
      "blockNumber": "0x13adf31",
      "gasUsed": "0xbdca",
      "effectiveGasPrice": "0x278be9e",
      "from": "0x34973347d332f97b57e5f0953ad5864ba8e579dd",
      "to": "0xd4f3a2cc13024209c0752e71f7014e5c9177d9b5",
      "contractAddress": null,
      "l1BaseFeeScalar": "0x44d",
      "l1BlobBaseFee": "0x1",
      "l1BlobBaseFeeScalar": "0xa118b",
      "l1Fee": "0x27b44c1c7",
      "l1GasPrice": "0x1689ec6ad",
      "l1GasUsed": "0x640"
    },
    {
      "status": "0x1",
      "cumulativeGasUsed": "0x18adc3",
      "logs": [
        {
          "address": "0xd4f3a2cc13024209c0752e71f7014e5c9177d9b5",
          "topics": [
            "0x38c11947f16670fa95ddb76444c21a13a0be4f0132d147eb6245c4b94ea889fa",
            "0x000000000000000000000000ca0d7b1b0330417310138ae4c9088eb3498dc9f9"
          ],
          "data": "0x",
          "blockHash": "0x1aa011d6495a34b5435d6575dbe43af562c5eee1db8ded96db87329e8ab21dee",
          "blockNumber": "0x13adf31",
          "transactionHash": "0x94c1474d858d2a041b0e57d3bfb946b06d8dd09b0e791dfdaa7f735e3dd690f5",
          "transactionIndex": "0x12",
          "logIndex": "0x25",
          "removed": false
        }
      ],
      "logsBloom": "0x00000000000000000000000000000000000000000000000000000000000000000000000000100000000000000000000000000000000000000000000000000000000000000000001000000040000000000000000000000000000000000000000000000000010000000000000000000020000000000000000000000000000000000000000000000000008000000000000000000000000000000000000000000000000000000000000000000000000000000000000000000000000000000000000000000000000000000000000000200000000200000000000000000000000000000000000000000000000000000000000000020000000000000000000000000000",
      "type": "0x2",
      "transactionHash": "0x94c1474d858d2a041b0e57d3bfb946b06d8dd09b0e791dfdaa7f735e3dd690f5",
      "transactionIndex": "0x12",
      "blockHash": "0x1aa011d6495a34b5435d6575dbe43af562c5eee1db8ded96db87329e8ab21dee",
      "blockNumber": "0x13adf31",
      "gasUsed": "0xb883",
      "effectiveGasPrice": "0x278be9e",
      "from": "0x34973347d332f97b57e5f0953ad5864ba8e579dd",
      "to": "0xd4f3a2cc13024209c0752e71f7014e5c9177d9b5",
      "contractAddress": null,
      "l1BaseFeeScalar": "0x44d",
      "l1BlobBaseFee": "0x1",
      "l1BlobBaseFeeScalar": "0xa118b",
      "l1Fee": "0x27b44c1c7",
      "l1GasPrice": "0x1689ec6ad",
      "l1GasUsed": "0x640"
    },
    {
      "status": "0x1",
      "cumulativeGasUsed": "0x1978de",
      "logs": [
        {
          "address": "0xd4f3a2cc13024209c0752e71f7014e5c9177d9b5",
          "topics": [
            "0x0f70a67bc35edde2b5599b6d163651e02f760143df04f95b4ef233299531bf21",
            "0x0000000000000000000000000cb970511c6c3491dc36f1b7774743da3fc4335f",
            "0x00000000000000000000000098d56648c9b7f3cb49531f4135115b5000ab1733",
            "0x000000000000000000000000ca0d7b1b0330417310138ae4c9088eb3498dc9f9"
          ],
          "data": "0xa3a17e8dc926695bbae8768382ca153ed1236936bbe656c5e3f80e238131dffa0000000000000000000000000000000000000000000000000000000000000000",
          "blockHash": "0x1aa011d6495a34b5435d6575dbe43af562c5eee1db8ded96db87329e8ab21dee",
          "blockNumber": "0x13adf31",
          "transactionHash": "0xc0fd241aa194d4d8f56bbe44fc66c176663f2b8ea8866d14825840445f2323f8",
          "transactionIndex": "0x13",
          "logIndex": "0x26",
          "removed": false
        }
      ],
      "logsBloom": "0x00020000000000000000000000000200000000000000000000000000000000000000000000100000000000000000000000080000000000000000000000000000000000000000000000000000000000000000000000000000000010000000000000000000010000400000000800040020000000000000000000000000000000000000000000000000008000000000000000000000000000000040000000000000000000000000000000000000000000000000000000000000000000000000000000000000000000000000000000000000000200002000000000000000000000000000000000000000000000000000000000020000000000000000000000000000",
      "type": "0x2",
      "transactionHash": "0xc0fd241aa194d4d8f56bbe44fc66c176663f2b8ea8866d14825840445f2323f8",
      "transactionIndex": "0x13",
      "blockHash": "0x1aa011d6495a34b5435d6575dbe43af562c5eee1db8ded96db87329e8ab21dee",
      "blockNumber": "0x13adf31",
      "gasUsed": "0xcb1b",
      "effectiveGasPrice": "0x278be9e",
      "from": "0x34973347d332f97b57e5f0953ad5864ba8e579dd",
      "to": "0xd4f3a2cc13024209c0752e71f7014e5c9177d9b5",
      "contractAddress": null,
      "l1BaseFeeScalar": "0x44d",
      "l1BlobBaseFee": "0x1",
      "l1BlobBaseFeeScalar": "0xa118b",
      "l1Fee": "0x32d870962",
      "l1GasPrice": "0x1689ec6ad",
      "l1GasUsed": "0x800"
    },
    {
      "status": "0x1",
      "cumulativeGasUsed": "0x1a36a8",
      "logs": [
        {
          "address": "0xd4f3a2cc13024209c0752e71f7014e5c9177d9b5",
          "topics": [
            "0x2e19e4cd387b328475c3d4ea543cd82bcaabdeb94bb2d7529bf04a0d13a89a39",
            "0x000000000000000000000000ca0d7b1b0330417310138ae4c9088eb3498dc9f9"
          ],
          "data": "0x0000000000000000000000000cb970511c6c3491dc36f1b7774743da3fc4335f0000000000000000000000000000000000000000000000000000000000000000",
          "blockHash": "0x1aa011d6495a34b5435d6575dbe43af562c5eee1db8ded96db87329e8ab21dee",
          "blockNumber": "0x13adf31",
          "transactionHash": "0xa5448481c53a4c384d7cfbda408907b7e4d38b344cbb528ba82acb3f291b6e52",
          "transactionIndex": "0x14",
          "logIndex": "0x27",
          "removed": false
        }
      ],
      "logsBloom": "0x00000000000000000000000000000000000000000000000000000000000000000000000000100000000000000000000000000000000000000000000000000000000000000000000000000000000000000000000000000000000000000000000000000000010000000000000000000020000000000000000000000000000000000000000000000000008000000000000000000000000000000000000000000000000000000000000000000000000000000000000000000000000000000000000000000000000000000000000000008000000200000000000000000000000000000000000000000000000000000000000000020000000000000000000000000030",
      "type": "0x2",
      "transactionHash": "0xa5448481c53a4c384d7cfbda408907b7e4d38b344cbb528ba82acb3f291b6e52",
      "transactionIndex": "0x14",
      "blockHash": "0x1aa011d6495a34b5435d6575dbe43af562c5eee1db8ded96db87329e8ab21dee",
      "blockNumber": "0x13adf31",
      "gasUsed": "0xbdca",
      "effectiveGasPrice": "0x278be9e",
      "from": "0x34973347d332f97b57e5f0953ad5864ba8e579dd",
      "to": "0xd4f3a2cc13024209c0752e71f7014e5c9177d9b5",
      "contractAddress": null,
      "l1BaseFeeScalar": "0x44d",
      "l1BlobBaseFee": "0x1",
      "l1BlobBaseFeeScalar": "0xa118b",
      "l1Fee": "0x29e0c84cd",
      "l1GasPrice": "0x1689ec6ad",
      "l1GasUsed": "0x697"
    }
  ],
  "libraries": [],
  "pending": [],
  "returns": {},
  "timestamp": 1737039209,
  "chain": 84532,
  "commit": "e0732dfa"
}